:020000040800F2
:10000000E0060020ED000008F5000008F7000008F9
:10001000F9000008FB000008FD00000800000000D7
:10002000000000000000000000000000FF000008C9
:10003000010100080000000003010008050100089C
:100040000701000807010008070100080701000870
:100050000701000807010008070100080701000860
:100060000701000807010008070100080701000850
:100070000701000807010008070100080701000840
:100080000701000807010008070100080701000830
:100090000701000807010008070100080701000820
:1000A0000701000807010008070100080701000810
:1000B0000701000807010008070100080701000800
:1000C00007010008070100080701000807010008F0
:1000D00007010008070100080701000807010008E0
:1000E00007010008070100080701000809488047C8
:1000F00009480047FEE7FEE7FEE7FEE7FEE7FEE70A
:10010000FEE7FEE7FEE7FEE704480549054A064B21
:1001100070470000610200081D0B0008E00000208D
:10012000E0060020E0020020E00200207047704757
:100130007047000080B500F001F880BD84B0002059
:100140000390029041F20001C4F20201086840F4F9
:1001500080300860FFE741F20000C4F2020000684E
:1001600000F400300290039801300390FFE70299F9
:100170000020019039B9FFE70398B0F5A06018BFDF
:1001800001200190FFE70198C0070028E3D1FFE7B5
:1001900041F20000C4F2020000688003002803D589
:1001A000FFE70120029002E000200290FFE70298A2
:1001B000012851D1FFE742F20001C4F202010868B0
:1001C00040F010000860086820F007000860086828
:1001D00040F00200086041F20401C4F20201009103
:1001E0000868086008680860086840F48060086073
:1001F000086820F47C100860086840F4E810086083
:1002000041F20001C4F20201086840F08070086009
:10021000FFE741F20000C4F20200006880010028FC
:1002200001D4FFE7F5E741F20401C4F202010868D6
:1002300020F003000860086840F002000860FFE753
:1002400041F20400C4F20200006800F00C0008282B
:1002500001D0FFE7F4E700E0FFE704B070470000DB
:1002600080B541F20002C4F20202106840F00100C1
:10027000106041F20401C4F2020108680023CFF6C5
:10028000FF031840086010684FF6FF73CFF6F6635F
:1002900018401060106820F480201060086820F476
:1002A000FE00086041F20801C4F202014FF41F0091
:1002B0000860FFF73FFF4EF60851CEF200014FF005
:1002C0000060086080BD00002DE9FF5F4FF0140062
:1002D0004FF05A034FF073014FF087044FF0000ABC
:1002E00000F07EFD534D4FF000062E60524D4FF44E
:1002F00078462E604FF01B004FF0780100F0D7F9E0
:1003000000F10B0000F0E2F800F10D0000F008FA37
:1003100000F10B0000F04BFA00F10B0000F055F972
:10032000BDE8FF9F2DE9FF5F4FF014004FF0500331
:100330004FF0AF014FF0C3044FF0000A00F050FD42
:100340003C4D4FF000062E603B4D4FF478462E603A
:100350004FF01B004FF0B40100F060FA00F10B0009
:1003600000F084FA00F10B0000F0B0F800F10D008D
:1003700000F0E9F8BDE8FF9F2DE9FF5F4FF01400A2
:100380004FF050034FF0AF014FF0C3044FF4784AE1
:1003900000F026FD274D2E684FF478462E60264D3E
:1003A0002E684FF000062E604FF01B004FF0B40196
:1003B00000F034FA00F10B0000F058FA00F10B00E5
:1003C00000F084F800F10D0000F0BDF8BDE8FF9FDB
:1003D0002DE9FF5F4FF014004FF05A034FF0730107
:1003E0004FF087044FF4784A00F0FAFC114D2E6864
:1003F0004FF478462E60104D2E684FF000062E60A8
:100400004FF01B004FF0780100F051F900F10B00A4
:1004100000F05CF800F10D0000F082F900F10B0033
:1004200000F0C5F900F10B0000F0CFF8BDE8FF9F28
:1004300004E0000000000020020000202DE9FF5F22
:100440004FF0000A4FF000004FF000014FF4A0738E
:100450004FF0F00400F0C4FC4FF4784A01F10304BB
:1004600000F0BEFC4FF0F00400F1030300F0B8FC14
:100470004FF0ED014FF4A07300F0B2FC40F23D10DC
:100480004FF0000100F0ACFC00F00FFAFFF71CFF8A
:10049000FFF748FF4FF06E004FF0D20101F08BFFE5
:1004A00000F1140001F0C3FE00F1140001F0EBFEB6
:1004B00000F1140001F025FF00F1140001F0B9FF74
:1004C00000F1140001F08BFEBDE8FF9F2DE9FF5FF6
:1004D000E44DD5F800A000F10A0301F10A0400F090
:1004E0007FFCE14DD5F800A000F1020000F102030D
:1004F00001F1020100F074FC00F1050000F10103BC
:10050000A1F1020101F1080400F06AFCBDE8FF9FBF
:100510002DE9FF5FD34DD5F800A000F1080301F1EC
:10052000020400F05DFCA3F1060304F1060400F0F0
:1005300057FC01F1080103F1060304F1020400F085
:100540004FFCBDE8FF9F2DE9FF5FC64DD5F800A029
:1005500000F1080301F1020400F042FCA3F10603DC
:1005600004F1080400F03CFC03F1060301F108016A
:1005700000F036FC00F1060000F10203A1F10801D1
:1005800001F10A0400F02CFCBDE8FF9F2DE9FF5F9C
:10059000B44DD5F800A000F10C0301F1020400F005
:1005A0001FFCA3F10A0304F1080400F019FC00F198
:1005B000050000F1020300F013FC00F1050000F15A
:1005C000020300F00DFCBDE8FF9F2DE9FF5FA54D84
:1005D000D5F800A000F1080301F1020400F000FCCE
:1005E000A3F1060304F1080400F0FAFB03F106038B
:1005F00001F1040101F1020400F0F2FB01F1040138
:1006000001F1020400F0ECFBBDE8FF9F2DE9FF5F64
:10061000944DD5F800A000F10C0301F10A0400F09C
:10062000DFFB914DD5F800A000F1030000F10203BB
:1006300001F1080400F0D4FB00F1050000F1020311
:1006400000F0CEFBBDE8FF9F2DE9FF5F854DD5F89B
:1006500000A000F1020301F10A0400F0C1FB01F166
:10066000080100F1080301F1020400F0B9FBBDE844
:10067000FF9F2DE9FF5F7B4DD5F800A000F1080337
:1006800001F10A0400F0ACFB774DB5F800A000F1D1
:10069000020000F1040301F1040400F0A1FB01F1E8
:1006A000060101F1040400F09BFBBDE8FF9F2DE96A
:1006B000FF5F6C4DD5F800A000F1080301F10A04BA
:1006C00000F08EFB684DB5F800A000F1020000F1CB
:1006D000060301F1020101F1020400F081FBA0F127
:1006E000020000F1060301F1050101F1010400F02F
:1006F00077FBBDE8FF9F2DE9FF5F5A4DD5F800A0BD
:1007000000F1080301F1030400F06AFB00F10300AB
:1007100000F1020301F10A0400F062FBBDE8FF9F53
:100720002DE9FF5F4F4DD5F800A000F1080301F15E
:10073000020400F055FB01F1040101F1020400F094
:100740004FFB00F10203A1F1040101F10A0400F0E2
:1007500047FB00F1060000F1020300F041FBBDE899
:10076000FF9F2DE9FF5F3F4DD5F800A000F1080382
:1007700001F10A0400F034FB3B4DB5F800A000F194
:10078000020000F1060301F1020101F1030400F08F
:1007900027FBA3F1040301F1060400F021FB01F1A2
:1007A000050100F1040300F01BFBBDE8FF9F2DE9EC
:1007B000FF5F2C4DD5F800A000F1020301F10A04FF
:1007C00000F00EFB00F1020000F1020301F1040150
:1007D00001F1040400F004FB00F1020000F1020347
:1007E00001F1020101F1020400F0FAFAA1F10401A1
:1007F00001F1020400F0F4FA00F1020000F102033A
:10080000A1F1020101F1020400F0EAFA01F108018C
:1008100001F1020400F0E4FABDE8FF9F2DE9FF5F5B
:10082000104DD5F800A000F1080301F1010400F01B
:10083000D7FAA3F1060304F1090400F0D1FA03F199
:10084000060301F1090100F0CBFA00F1070000F105
:100850000103A1F1090101F10A0400F0C1FABDE8A8
:10086000FF9F03E002000020000000202DE9FF5F51
:10087000BF4DD5F800A000F1080301F10A0400F013
:10088000AFFABC4DD5F80080C24601F1020101F17A
:10089000060400F1020300F0A3FA00F1060000F1E3
:1008A000020300F09DFABDE8FF9F2DE9FF5FB14D07
:1008B0004FF000062E60AE4D4FF478462E604FF09C
:1008C0001E004FF02801FFF7A1FE00F10F00FFF717
:1008D0007CFE00F10B00FFF7B7FE00F10B00FFF705
:1008E00017FE00F10B00FFF72EFE00F10B00FFF7E3
:1008F0004DFE00F10F00FFF768FE4FF01E004FF0B5
:100900003C01FFF7D4FE00F10B00FFF75EFE00F1A3
:100910000B00FFF799FE00F10B00FFF756FE00F108
:100920000B00FFF7F5FD00F10B00FFF7E4FE00F10F
:100930000F00FFF7F5FE00F10F00FFF712FF00F1C7
:100940000B00FFF7EDFE00F10B00FFF71FFE00F1BB
:100950000F00FFF73AFEBDE8FF9F2DE9FF5F8648D5
:1009600001684FEA513101F001014FF0000291425C
:1009700004D1FFF72DFD00F091FA0FE07E480168E9
:100980004FEA913101F001014FF00002914204D190
:10099000FFF7F2FC00F082FA1FE0E0E7764801681A
:1009A0004FEA513101F001014FF00002914202D1B2
:1009B00002F083FBBAE0704801684FEA913101F020
:1009C00001014FF00002914206D1FFF77DFCFFF7D5
:1009D000D3FC00F063FA00E0E0E7674801684FEA03
:1009E000513101F001014FF00002914206D1FFF7B1
:1009F00099FCFFF7EDFC00F051FACFE75E48016883
:100A00004FEA913101F001014FF00002914203D110
:100A100001F08EFA8AE0E0E7DFE7BDE8FF9F2DE90D
:100A2000FF5F544E30884FF000003080504E3088C9
:100A30004FF601003080514E30884FF00300308077
:100A40004F485049DFF840C100F16205CCF8005032
:100A5000086000F105004D4908604A4801684FF000
:100A600001020A704FF001024A704FF003028A70CF
:100A70004FF00302CA704FF001020A714FF00102F9
:100A80004A714FF054004FF05401DFF80481DFF851
:100A90000491C8F80000C9F80010DFF8FC80DFF806
:100AA000FC904FF06C004FF06401C8F80000C9F8EA
:100AB00000103B484FF0010101603A484FF005013A
:100AC000016039484FF06401016038484FF064011B
:100AD000016037484FF01401016000F102004FF04F
:100AE0006401016000F102004FF0D201016000F1E9
:100AF00002004FF49B7101602E484FF0000101602D
:100B00002C484FF00F0101602A484FF01E01016090
:100B100028484FF014010160BDE8FF9F00F028F95C
:100B2000FFF77DFFFFF78AFCFFF717FF1248016808
:100B30004FEA513101F001014FF00002914200D122
:100B4000EEE70D4801684FEA913101F001014FF0E5
:100B50000002914200D1E3E7074801684FEAD13132
:100B600001F001014FF00002914200D1D8E7DDE72A
:100B70000200002000000020081001408C0000202E
:100B80000C000020880000209C0000208400002031
:100B90007000002074000020780000207C000020FD
:100BA000A000002080000020900000209400002081
:100BB000CA000020D20000200FB5544908684FF049
:100BC00001034FEAC3236FEA030300EA030008802E
:100BD0004F490A704D4908684FF0010340EAC320AD
:100BE00008800FBD0FB5494908684FF0010340EA7E
:100BF00083200880454908684FF001034FEA03331A
:100C00006FEA030300EA03000880FFF7D5FF0FBD7A
:100C10000FB53E4908684FF0010340EA8320088081
:100C20003A4908684FF0010340EA03300880FFF7B3
:100C3000C3FF0FBD0FB5354908684FF0010340EA07
:100C40000320088000F02AF9304908684FF00103BA
:100C50004FEA03236FEA030300EA0300088000F071
:100C600055F92A4908684FF0010340EA032008803B
:100C700000F014F9254908684FF0010340EAC33039
:100C80000860224908684FF0010340EAC320088049
:100C90001E4908684FF0010340EA832008801B4981
:100CA00008684FF001034FEAC3336FEA030300EA19
:100CB000030008604FF0C502FFF794FF4FF07F027A
:100CC000FFF7A6FF4FF00002FFF7A2FF4FF036023A
:100CD000FFF788FF4FF02802FFF79AFF4FF03A0224
:100CE000FFF780FF4FF05502FFF792FF4FF0110220
:100CF000FFF778FF00F0D2F84FF02902FFF772FFFC
:100D00004FF02C02FFF76EFF0FBD03E00C0C01400B
:100D10000C0801401FB54FF02A02FFF763FF02469F
:100D20004FEA1222FFF774FF0246FFF771FF0A46EF
:100D30004FEA1222FFF76CFF0A46FFF769FF4FF0F8
:100D40002B02FFF74FFF1A464FEA1222FFF760FF10
:100D50001A46FFF75DFF22464FEA1222FFF758FFBF
:100D60002246FFF755FF4FF02C02FFF73BFF1FBD58
:100D70002DE9FF5F2C4801684FF0010241EA0201B2
:100D800001602A484FF001024FEA426202602649A0
:100D90004FF01C000860264843F23331C3F2333170
:100DA0000160244843F23331C3F2333101602248F9
:100DB00040F20001C8F68001016020484EF20001B7
:100DC000C0F2000101601E48016847F60074C0F2DD
:100DD000000441EA04010160FFF72CFFBDE8FF9F1A
:100DE0002DE9FF5F1FB402B408B402BC08BCFFF7D2
:100DF00091FF1FBC1B1A03F10103641A04F10104E3
:100E000003FB04F34FF02C02FFF7ECFE52464FEACF
:100E10001222FFF7FDFE5246FFF7FAFE5B1E002B83
:100E2000F4DCBDE8FF9F0DE0181002400400014013
:100E300000080140040C0140041001400C10014066
:100E40000C0C01402DE93F44364B1C684FF0010566
:100E50004FEAC5356FEA050504EA05041C600B4638
:100E600000F1010103F10104FFF754FF4FF02C02E0
:100E7000FFF7B8FE52464FEA1222FFF7C9FE52466C
:100E8000FFF7C6FEBDE83F842DE9FE5F264D2868CA
:100E90004FEA503000F00100BDE8FE9F2DE900410F
:100EA000DFF88880B8F10108B8F1000FFADABDE880
:100EB00000812DE90041DFF87480B8F10208B8F133
:100EC000000FFADABDE800812DE90041DFF85C800F
:100ED000B8F57A78B8F1000FFADABDE800812DE9AB
:100EE0000041DFF84880B8F10A08B8F1000FFADADB
:100EF000BDE8008100B500F009F800F007F800F047
:100F000005F800F003F800F001F800BD2DE90041FC
:100F1000DFF81880B8F16408B8F1000FFADABDE81C
:100F2000008100000C0C0140081001400460180012
:100F30002DE9FF5F4FF6FF7A4FF008004FF00C01EC
:100F40004FF00E034FF00E04FFF74AFF4FF008007A
:100F50004FF00C014FF00A034FF01004FFF740FF71
:100F60004FF00A004FF010014FF00E034FF0120443
:100F7000FFF736FF4FF00C004FF01604FFF730FF7D
:100F80004FF008004FF014014FF00E03FFF728FF59
:100F90004FF010004FF016034FF00C014FF00E040D
:100FA000FFF71EFF4FF012034FF01604FFF718FF74
:100FB0004FF016034FF01401FFF712FF4FF0180027
:100FC0004FF01F034FF00C014FF00E04FFF708FF26
:100FD0004FF01A034FF01604FFF702FF4FF0220004
:100FE0004FF024034FF00E014FF01004FFF7F8FE0E
:100FF0004FF014014FF01604FFF7F2FEBDE8FF9F1B
:101000002DE9FF5F05460E46DFF8B481A8F80050D1
:1010100008F10208A8F8006000F104030C46A4F1EE
:1010200003014FF0000AFFF7DBFE00F1060000F1BC
:101030000403FFF7D5FE284600F101033446A4F16E
:101040000C014FF01F0AFFF7CBFE00F1060000F184
:101050000103FFF7C5FE284600F10A030C46A1F183
:101060000A014FF4784AFFF7BBFE00F10400A3F138
:1010700004030C46A1F101014FF6C87AFFF7B0FE58
:10108000A0F1010003F101030C46A1F10401FFF7F7
:10109000A7FE01F1010401F1010100F1010000F1DD
:1010A00001034FF6FF7AFFF79BFE03F1020000F108
:1010B0000103FFF795FEBDE8FF9F2DE9FF5F0546A1
:1010C0000E4600F104030C46A4F1030140F2FF7A3E
:1010D000FFF786FE00F1060000F10403FFF780FE33
:1010E000284600F101033446A4F10C01FFF778FE15
:1010F00000F1060000F10103FFF772FE284600F13F
:101100000A030C46A1F10A01FFF76AFE00F1040090
:10111000A3F104030C46A1F10101FFF761FEA0F168
:10112000010003F101030C46A1F10401FFF758FE91
:1011300001F1010401F1010100F1010000F10103DD
:10114000FFF74EFE03F1020000F10103FFF748FE36
:10115000BDE8FF9F2DE9FF5F4FF02807184D4FF0C6
:10116000170005F102052988FFF7A7FFA1F101018A
:10117000FFF746FFFFF7BEFEA7F10107002FF3D8E8
:10118000FFF79BFF2980BDE8FF9F2DE9FF5F0C4D16
:101190004FF0170005F1020529884FF02807FFF7E7
:1011A0008CFF01F10101FFF72BFFFFF7A3FEA7F171
:1011B0000107002FF3D82980BDE8FF9F00F002F857
:1011C000C40000202DE9FF5F044D288805F10205C9
:1011D00029888046894600F003F80000C4000020FA
:1011E00000F104030C46A4F1030140F2FF7AFFF77B
:1011F000F7FD00F1060000F10403284600F10103A9
:101200003446A4F10C01FFF7EBFDFFF773FEFFF787
:1012100071FEFFF76FFE4046494605460E4600F157
:1012200004030C46A4F1030140F2FF7A00F106002A
:1012300000F10403FFF7D4FD284600F10103344612
:10124000A4F10C0100F1060000F10103FFF7C8FD55
:10125000FFF750FEFFF74EFEFFF74CFE40464946B3
:1012600005460E4600F104030C46A4F103014FF0BD
:10127000000AFFF7B5FD284600F101033446A4F14A
:101280000A014FF01F0AFFF7ABFDA0F10100A3F127
:101290000103A4F10501FFF7A3FDFFF72BFEFFF704
:1012A00029FEFFF727FE4046494605460E4600F157
:1012B00004030C46A4F103014FF0000A00F10600FC
:1012C00000F10403FFF78CFD284600F101033446CA
:1012D000A4F10A014FF01F0A00F1060000F101031A
:1012E000FFF77EFDA0F10100A3F10103A4F10501C8
:1012F000FFF776FDFFF7FEFDFFF7FCFDFFF7FAFDB8
:101300004046494605460E4600F104030C46A4F14A
:10131000030140F2FF7AFFF763FD284600F1010365
:101320003446A4F10A01FFF75BFDA0F10100A3F12F
:101330000103A4F10501FFF753FDFFF7DBFDFFF704
:10134000D9FDFFF7D7FD4046494605460E4600F158
:1013500004030C46A4F1030140F2FF7A00F10600F9
:1013600000F10403FFF73CFD284600F10103344679
:10137000A4F10A0100F1060000F10103FFF730FDBE
:10138000A0F10100A3F10103A4F10501FFF728FD7D
:10139000FFF7B0FDFFF7AEFDFFF7ACFD4046494655
:1013A00005460E4600F104030C46A4F103014FF07C
:1013B000000AFFF715FD00F1060000F104032846BE
:1013C00000F101033446A4F10C014FF01F0AFFF7AE
:1013D00007FD00F1060000F10103FFF78BFDFFF7A9
:1013E00089FDFFF787FD4046494605460E4600F158
:1013F00004030C46A4F103014FF0000A00F10600BB
:1014000000F10403FFF7ECFC284600F10103344629
:10141000A4F10C0100F1060000F101034FF01F0AD6
:10142000FFF7DEFCFFF766FDFFF764FDFFF762FDE7
:10143000BDE8FF9F2DE9FF5F05460E4600F104035E
:101440000C46A4F103014FF0000AFFF7C9FC00F1BC
:10145000060000F10403FFF7C3FC284600F1010376
:101460003446A4F10C01FFF7BBFC00F1060000F1CB
:101470000103FFF7B5FC284600F10A030C46A1F171
:101480000A01FFF7ADFC00F10400A3F104030C46D0
:10149000A1F10101FFF7A4FCA0F1010003F1010398
:1014A0000C46A1F10401FFF79BFC01F1010401F1DD
:1014B000010100F1010000F10103FFF791FC03F1CC
:1014C000020000F10103FFF78BFCBDE8FF9F2DE94F
:1014D000FF5F4FF02807174D05F102052988FFF738
:1014E000A9FFA1F10401FFF78BFD00F05FF9A7F15F
:1014F0000407002FF3D8FFF79DFF2980BDE8FF9F69
:101500002DE9FF5F0B4D05F1020529884FF02807F3
:10151000FFF790FF01F10401FFF772FD00F046F9BB
:10152000A7F10407002FF3D82980BDE8FF9F00F042
:1015300003F80000C40000202DE9FF5F044D288857
:1015400005F1020529888046894600F003F800006D
:10155000C400002000F104030C46A4F103014FF085
:10156000000AFFF73DFC00F1060000F104032846E5
:1015700000F101033446A4F10C01FFF731FCFFF741
:10158000B9FCFFF7B7FCFFF7B5FC404649460546F6
:101590000E4600F104030C46A4F103014FF0000ACB
:1015A00000F1060000F10403FFF71AFC284600F1E1
:1015B00001033446A4F10C0100F1060000F101031F
:1015C000FFF70EFCFFF796FCFFF794FCFFF792FC89
:1015D0004046494605460E4600F104030C46A4F178
:1015E00003014FF6E07AFFF7FBFB284600F1010309
:1015F0003446A4F10A014FF01F0AFFF7F1FBA0F1F6
:101600000100A3F10103A4F10501FFF7E9FBFFF7D6
:1016100071FCFFF76FFCFFF76DFC4046494605463D
:101620000E4600F104030C46A4F103014FF6E07AE4
:1016300000F1060000F10403FFF7D2FB284600F199
:1016400001033446A4F10A014FF01F0A00F106001D
:1016500000F10103FFF7C4FBA0F10100A3F10103B6
:10166000A4F10501FFF7BCFBFFF744FCFFF742FCC8
:10167000FFF740FC4046494605460E4600F104038C
:101680000C46A4F103014FF0000AFFF7A9FB28461E
:1016900000F101033446A4F10A01FFF7A1FBA0F118
:1016A0000100A3F10103A4F10501FFF799FBFFF786
:1016B00021FCFFF71FFCFFF71DFC4046494605468D
:1016C0000E4600F104030C46A4F103014FF0000A9A
:1016D00000F1060000F10403FFF782FB284600F149
:1016E00001033446A4F10A0100F1060000F10103F0
:1016F000FFF776FBA0F10100A3F10103A4F10501BE
:10170000FFF76EFBFFF7F6FBFFF7F4FBFFF7F2FBCB
:101710004046494605460E4600F104030C46A4F136
:1017200003014FF6E07AFFF75BFB00F1060000F1E2
:101730000403284600F101033446A4F10C014FF0E4
:101740001F0AFFF74DFB00F1060000F10103FFF750
:10175000D1FBFFF7CFFBFFF7CDFB404649460546DF
:101760000E4600F104030C46A4F103014FF6E07AA3
:1017700000F1060000F10403FFF732FB284600F1F8
:1017800001033446A4F10C0100F1060000F101034D
:101790004FF01F0AFFF724FBFFF7ACFBFFF7AAFB94
:1017A000FFF7A8FBBDE8FF9F00F000F82DE9FF5F01
:1017B000074C084F5FF8F8954FF00D0B09F102093F
:1017C000B9F80050A5F11E0C4FF0000800F006F823
:1017D000B0000020BA000020C40000202088398812
:1017E0004FF6E07A00F035F904F1020407F1020740
:1017F00008F10208584532D8B8F1080FEED1A4F12B
:101800000804A7F10807A8F10808FFF773FBFFF722
:1018100071FB208839884FF0000A00F01AF904F1B2
:10182000020407F1020708F10208B8F1080FF0D12D
:10183000A4F10804A7F10807A8F10808FFF75AFB6C
:10184000FFF758FB00F072F804F1020407F10207F9
:1018500008F10208B8F1080FF4D1BDE8FF9F0BF1C1
:10186000050B834501D8FFF7C7FF8D4201D8FFF76D
:10187000C3FF614557D8FFF7BFFF2DE9FF5F034C5A
:10188000034F5FF8C49600F007F80000B000002096
:10189000BA000020C40000204FF000084FF0170BE2
:1018A000208839884FF6E07A00F0D3F804F102047A
:1018B00007F1020708F1020858452ED8B8F1080FC1
:1018C000ECD1A4F10804A7F10807A8F10808FFF774
:1018D00011FBFFF70FFB208839884FF0000A00F05A
:1018E000B8F804F1020407F1020708F10208B8F1A0
:1018F000080FF0D1A4F10804A7F10807A8F108081F
:1019000000F01CF804F1020407F1020708F10208D4
:10191000B8F1080FF4D1BDE8FF9F0BF10A0B834526
:1019200001D8FFF7CBFF01F017F8A3E32DE9FF5F24
:101930002288A2F102022280BDE8FF9F2DE9FF5F0D
:101940002288A2F10402062A02D32280BDE8FF9F6A
:1019500002F58C722280FFF7F9FF2DE9FF5F4FF04F
:1019600000004FF000014FF4A0734FF0780440F2F4
:10197000FF7AFFF735FA4FF050004FF082034FF037
:1019800028014FF041044FF6FF7AFFF729FA4FF094
:101990006E004FF08C034FF019014FF02804FFF751
:1019A0001FFA4FF046004FF064034FF041014FF033
:1019B0005004FFF715FA4FF0B4004FF0DC034FF07E
:1019C00028014FF041044FF6FF7AFFF709FA4FF074
:1019D000C8004FF0DC034FF014014FF02804FFF76C
:1019E000FFF94FF0AA004FF0B4034FF041014FF060
:1019F0004604FFF7F5F94FF000004FF079014FF47E
:101A0000A0734FF0F0044FF6E07AFFF7E9F94FF0DA
:101A1000D30340F2FF7AFFF7E3F94FF0C9034FF029
:101A2000D2044FF6707A4FF0C4034FF0D1044FF454
:101A3000FC6AFFF7D5F9BDE8FF9F2DE9FF5F00F1D4
:101A40000A034FF0E904A4EB0101FFF7C9F9BDE86F
:101A5000FF9F2DE9FF5F0C46A1F1020100F1030396
:101A6000FFF7BEF9184600F10303A1F10201FFF7E9
:101A7000B7F9BDE8FF9F2DE9FF5F4FF000004FF081
:101A800000014FF4A0734FF078044FF0000AFFF705
:101A9000A7F900F014F800F05CF84FF000004FF0E8
:101AA00079014FF4A0734FF0F00440F2FF7AFFF792
:101AB00097F900F07AF800F0CCF8BDE8FF9F2DE927
:101AC000FF5F4FF032004FF005014FF6FF7A00F054
:101AD0001AF84FF06E004FF0140100F014F84FF0B8
:101AE000B4004FF00A0100F00EF84FF0DC004FF0A8
:101AF000050100F008F84FF491704FF0140100F068
:101B000002F8BDE8FF9F2DE9FF5F00F1020301F13C
:101B10000204FFF765F900F1020003F1020301F18D
:101B2000020104F10204FFF75BF9A0F10400A3F144
:101B30000403FFF755F9A1F10401A4F10404FFF730
:101B40004FF900F1040003F10403FFF749F9BDE880
:101B5000FF9F2DE9FF5F4FF00A004FF070014FF437
:101B6000A0734FF078044EF21B7AFFF739F94FF06B
:101B70003C004FF074044FF050034FF6E07AFFF74B
:101B80002FF94FF078004FF08C03FFF729F94FF051
:101B9000B4004FF0C803FFF723F94FF0F0004FF403
:101BA0008273FFF71DF9BDE8FF9F2DE9FF5F4FF03E
:101BB00032004FF087014FF6FF7A00F01AF84FF02D
:101BC00064004FF09B0100F014F84FF096004FF0C6
:101BD0008C0100F00EF84FF0C8004FF09B0100F0B0
:101BE00008F84FF0FA004FF0910100F002F8BDE85C
:101BF000FF9F2DE9FF5F4FF6FF7A00F108030C46C7
:101C0000A1F10401FFF7ECF800F10200A4F10204D5
:101C1000A1F10201FFF7E4F800F10200A4F10204CF
:101C2000A1F10201FFF7DCF800F1040003F1020367
:101C300004F1020401F10201FFF7D2F8184603F1A2
:101C4000020304F1020401F10201FFF7C9F8BDE843
:101C5000FF9F2DE9FF5F4FF000004FF0EA014FF4C6
:101C6000A0734FF0F0044FF6FE7AFFF7B9F84FF08B
:101C70003C004FF03E044FF0EC014FF0EE034EF20B
:101C80001B7AFFF7ADF84FF078004FF07A044FF071
:101C9000EA014FF0EC03FFF7A3F84FF0B4004FF068
:101CA000B6044FF0EE014FF0E603FFF799F84FF05E
:101CB000F0004FF0F2044FF0EC014FF0EE03FFF7AD
:101CC0008FF8BDE8FF9F2DE9FF5FEB4C04F10204A4
:101CD00021685945BDE8FF9F2DE9FF5FE74E306859
:101CE0004FF0000140F2FF7AFFF7A7FE06F102066F
:101CF00030684FF00F0140F2FF7AFFF79EFE06F1C9
:101D0000020630684FF01E0140F2FF7AFFF795FEA1
:101D100006F1020630684FF0140140F2FF7AFFF737
:101D20008CFED64E3068A0F10A00306030684FF06B
:101D300001014FF0000A4FF01E084FF0280ADFF8AB
:101D400040C3DCF800B0404503D3504501DCFFF749
:101D5000BAFF06F102063068A0F10A003060306870
:101D60004FF00F014FF0000AFFF767FE4FF01E081B
:101D70004FF0280A0CF1020CDCF800B0404503D308
:101D8000504501DCFFF79FFF06F102063068A0F125
:101D90000A00306030684FF01E014FF0000AFFF774
:101DA0004CFE4FF01E084FF0280A07F10207D7F843
:101DB0000090404503D3504501DCFFF784FF06F156
:101DC00002063068A0F10A00306030684FF014015C
:101DD0004FF0000AFFF731FE4FF01E084FF0280ABF
:101DE0000CF1020CDCF800B0404503D3504501DC97
:101DF000FFF769FFBDE8FF9F2DE9FF5F9F4E306849
:101E00004FF0000140F2FF7AFFF717FE06F10206DD
:101E100030684FF00F0140F2FF7AFFF70EFE06F137
:101E2000020630684FF01E0140F2FF7AFFF705FE10
:101E300006F1020630684FF0140140F2FF7AFFF716
:101E4000FCFD8E4E3068A0F10A00306030684FF023
:101E500001014FF0000A4FF01E084FF0280ADFF88A
:101E600020C2DCF800B0404503D3504501DCFFF749
:101E70002AFF06F102063068A0F10A0030603068DF
:101E80004FF00F014FF0000AFFF7D7FD4FF01E088B
:101E90004FF0280A0CF1020CDCF800B0404503D3E7
:101EA000504501DCFFF70FFF06F102063068A0F194
:101EB0000A00306030684FF01E014FF0000AFFF753
:101EC000BCFD4FF01E084FF0280A07F10207D7F8B3
:101ED0000090404503D3504501DCFFF7F4FE06F1C6
:101EE00002063068A0F10A00306030684FF014013B
:101EF0004FF0000AFFF7A1FD4FF01E084FF0280A2F
:101F00000CF1020CDCF800B0404503D3504501DC75
:101F1000FFF7D9FEFEF7EEFFFEF7ECFFFEF7EAFF54
:101F2000FEF7E8FFFEF7E6FFFEF7E4FFBDE8FF9FE0
:101F30002DE9FF5FFFF79FFDFEF7FAFF4FF0170057
:101F40004FF0EA01FFF75CF84FF064004FF00F012B
:101F50004FF0000AFFF771FD4FF0D2004FF01E0165
:101F60004FF0000AFFF769FD4FF49B704FF014012A
:101F70004FF0000AFFF761FDFEF790FFDFF80491D4
:101F8000D9F800A04FEA5A3A0AF0010A4FF0000BC4
:101F9000D34513D1FFF7DEF8FEF7B8FFDFF8E49082
:101FA000D9F800A04FEA5A3A0AF0010A4FF0000BA4
:101FB000D34512D0FFF7E9F800F002F8FFF7DEFF93
:101FC0002D4D4FF01700288005F102054FF0EA0172
:101FD0002980FFF715F8FFF7D1FF4FF496754FF002
:101FE0006E09294C294F4FF000082580A7F8009072
:101FF000284649464FF6E07AFFF72BFD04F102042C
:1020000007F1020708F10208A5F14605A9F1050943
:10201000B8F1080FE9D1184D4FF01700288005F1ED
:1020200002054FF070012980FEF7EAFFDFF85490B7
:10203000D9F800A04FEA5A3A0AF0010A4FF0000B13
:10204000D34511D1FFF743FAFEF760FFDFF8349074
:10205000D9F800A04FEA5A3A0AF0010A4FF0000BF3
:10206000D345ADD0FFF74CFAFFF707FCFFF764FA52
:10207000FFF7DCFFBDE8FF9FC4000020CA0000207E
:10208000D200002008100140B0000020BA0000205B
:1020900000B50646184633460E462146344600BD76
:1020A0002DE9FF5F4FF6E07A4FF000004FF4A07388
:1020B0004FF000014FF0D004FEF792FE4FF4FC6A9F
:1020C0004FF000004FF4A0734FF0D0014FF0F00438
:1020D000FEF786FE4FF0140A4FF000004FF00001AB
:1020E0004FF4A0734FF00204FEF77AFE4FF0EE01BA
:1020F0004FF0F004FEF774FE4FF000014FF00203C2
:102100004FF0F004FEF76CFE4FF49F704FF4A07395
:102110004FF000014FF0F004FEF762FE4FF00200B6
:102120004FF49F734FF0D0010C4604F10304FEF707
:1021300057FEBDE8FF9F2DE9FF5F4FF4FC6A00F1F9
:10214000040000F1010301F10104FEF749FEA0F1D2
:10215000010001F1010101F10104FEF741FE4FF41C
:10216000784AA0F1020003F1020301F1010101F13B
:102170000304FEF735FE00F10200A3F1020301F1B2
:10218000030101F10204FEF72BFEBDE8FF9F2DE9DC
:10219000FF5F4FF4FC6A00F1040000F1010301F15C
:1021A0000104FEF71DFEA0F1010001F1010101F1A2
:1021B0000104FEF715FE4FF6A05AA0F1020001F14E
:1021C000010101F10404FEF70BFEA3F1020301F18A
:1021D000040101F10204FEF703FEBDE8FF9F2DE9B3
:1021E000FF5F4FF6FF7A00F1020301F10204FEF7F0
:1021F000F7FD4FF01F0A01F1020101F10604FEF79D
:10220000EFFD4DF2A61A00F1020000F10203A1F168
:10221000020101F10204FEF7E3FD4FF0000A01F1B3
:10222000020101F10604FEF7DBFDBDE8FF9F2DE989
:10223000FF5F4FF61F0A00F1010000F1010301F1F9
:102240000704FEF7CDFDA0F1010003F1010301F148
:10225000050101F10104FEF7C3FD00F1060000F1E4
:102260000103A1F1050101F10704FEF7B9FDA0F199
:10227000010003F1010301F1010101F10104FEF785
:10228000AFFDBDE8FF9F2DE9FF5F4FF01F0A00F192
:10229000030301F10104FEF7A3FD00F1010301F1C5
:1022A0000404FEF79DFD01F1040101F1010400F1B8
:1022B0000303FEF795FD00F1020001F10404FEF7AF
:1022C0008FFDA0F1020001F1030101F10104FEF70D
:1022D00087FD4FF4FC6A00F1060000F10103A1F153
:1022E000070101F10804FEF77BFDA0F1010003F1F5
:1022F000010301F1060101F10104FEF771FDBDE8E2
:10230000FF9F2DE9FF5F4FF01F0A00F1020000F16F
:10231000040301F10804FEF763FDA0F1020003F1DC
:10232000020301F10201A4F10204FEF759FD4FF48A
:10233000784A00F1010301F10404FEF751FD00F1B8
:10234000020000F10403A1F1020101F10104FEF712
:1023500047FD00F1050000F1010301F1020101F167
:102360000404FEF73DFDA0F1050000F1040301F1B6
:10237000050101F10104FEF733FDA0F10100A1F117
:10238000010100F1010301F10104FEF729FDA1F1B2
:10239000050101F10104FEF723FD00F1050000F144
:1023A0000103FEF71DFD01F1050101F10104FEF736
:1023B00017FDBDE8FF9F2DE9FF5F4FF01F0A00F1F9
:1023C000030301F10104FEF70BFD00F1010301F12C
:1023D0000404FEF705FD01F1040101F1010400F11F
:1023E0000303FEF7FDFC00F1020001F10404FEF717
:1023F000F7FCA0F1020001F1030101F10104FEF775
:10240000EFFC4FF4784A00F1060000F10103A1F15E
:10241000070101F10804FEF7E3FCA0F1010003F15C
:10242000010301F1010101F10104FEF7D9FCBDE84E
:10243000FF9F2DE9FF5F4FF4784A00F1010000F1A2
:10244000020301F10104FEF7CBFC00F1040000F1EE
:102450000203FEF7C5FCA0F1050003F1010301F141
:10246000010101F10204FEF7BBFC00F10100A3F140
:10247000010301F1020101F10104FEF7B1FC00F1D9
:102480000100A3F1010301F1010101F10104FEF7D3
:10249000A7FC00F10100A3F1010301F1010101F129
:1024A0000104FEF79DFCBDE8FF9F2DE9FF5F4FF0A3
:1024B000000A4FF0EE004FF0DC014FF49A734FF03A
:1024C000E604FEF78DFC4FF4784A7A4D2F884FF0E2
:1024D000140607FB06F303444FF0F3004FF0DE0150
:1024E000A4F10304FEF77CFCBDE8FF9F2DE9FF5F2C
:1024F0004FF6FF7A4FF008004FF0DA014FF00E036D
:102500004FF0DC04FEF76CFC4FF008004FF0DA01EE
:102510004FF00A034FF0DE04FEF762FC4FF00A00B2
:102520004FF0DE014FF00E034FF0E004FEF758FCD1
:102530004FF00C004FF0E404FEF752FC4FF008009F
:102540004FF0E2014FF00E03FEF74AFC4FF010008F
:102550004FF016034FF0DA014FF0DC04FEF740FCB9
:102560004FF012034FF0E404FEF73AFC4FF016036D
:102570004FF0E201FEF734FC4FF018004FF01F035C
:102580004FF0DA014FF0DC04FEF72AFC4FF01A039B
:102590004FF0E404FEF724FC4FF022004FF0240338
:1025A0004FF0DC014FF0DE04FEF71AFC4FF0E201C1
:1025B0004FF0E404FEF714FCBDE8FF9F2DE9FF5F38
:1025C0004FF4784A00F1020301F10A04FEF708FC17
:1025D00001F1080100F1080301F10204FEF700FC1B
:1025E000BDE8FF9F2DE9FF5F4FF4784A00F1080333
:1025F00001F10A04FEF7F4FB4FF0000A00F10200BB
:1026000000F1060301F1020101F10304FEF7E8FB0A
:10261000A3F1040301F10604FEF7E2FB01F1050159
:1026200000F10403FEF7DCFBBDE8FF9F2DE9FF5F2F
:102630004FF4784A00F1080301F10204FEF7D0FBE1
:1026400001F1040101F10204FEF7CAFB00F10203EB
:10265000A1F1040101F10A04FEF7C2FB00F106003A
:1026600000F10203FEF7BCFBBDE8FF9F2DE9FF5F11
:102670004FF4784A00F1080301F10204FEF7B0FBC1
:10268000A3F1060304F10804FEF7AAFB03F1060315
:1026900001F10801FEF7A4FB00F1060000F10203BE
:1026A000A1F1080101F10A04FEF79AFBBDE8FF9FC2
:1026B00000F002F88C0000202DE9FF5F4FF4784A0B
:1026C00000F10C0301F10204FEF78AFBA3F10A03F7
:1026D00004F10804FEF784FB00F1050000F1020399
:1026E000FEF77EFB00F1050000F10203FEF778FB28
:1026F000BDE8FF9F2DE9FF5F4FF4784A00F1010329
:1027000001F10204FEF76CFB00F1010001F102018E
:1027100000F1010301F10204FEF762FB00F1010088
:1027200001F1020100F1010301F10204FEF758FB7F
:1027300000F1010001F1020100F1010301F10204C5
:10274000FEF74EFB00F1010001F1020100F101036F
:1027500001F10204FEF744FB00F10100A1F10201C6
:1027600000F1010301F10204FEF73AFB00F1010060
:10277000A1F1020100F1010301F10204FEF730FBB7
:1027800000F10100A1F1020100F1010301F10204D5
:10279000FEF726FB00F10100A1F1020100F10103A7
:1027A00001F10204FEF71CFB00F1010001F102013E
:1027B000BDE8FF9F2DE9FF5F4FF4784A00F1080361
:1027C00001F10204FEF70CFB00F1030301F10A041E
:1027D000FEF706FBBDE8FF9F2DE9FF5F4FF4784A47
:1027E00000F1080301F10204FEF7FAFAA3F106036F
:1027F00004F10804FEF7F4FA03F1060301F1040101
:1028000001F10204FEF7ECFA01F1040101F1020406
:10281000FEF7E6FABDE8FF9F2DE9FF5F4FF4784A27
:1028200000F1080301F10204FEF7DAFAA3F106034E
:1028300004F10604FEF7D4FA01F1080103F10603DE
:1028400004F10204FEF7CCFABDE8FF9F2DE9FF5F1B
:102850004FF4784A00F1020301F10A04FEF7C0FACE
:1028600000F1020000F1020301F1040101F104048E
:10287000FEF7B6FA00F1020000F1020301F10201D5
:1028800001F10204FEF7ACFAA1F1040101F1020426
:10289000FEF7A6FA00F1020000F10203A1F1020125
:1028A00001F10204FEF79CFA01F1080101F10204B2
:1028B000FEF796FABDE8FF9F2DE9FF5F4FF4784AD7
:1028C00000F1080301F10204FEF78AFA01F10801A0
:1028D00001F10204FEF784FAA1F1080100F10300FE
:1028E00000F10203FEF77CFABDE8FF9F2DE9FF5FD0
:1028F0004FF4784A00F1080301F10A04FEF770FA78
:102900004FF0000A00F1020000F1060301F102019C
:1029100001F10204FEF764FAA0F1020000F10603DF
:1029200001F1050101F10104FEF75AFABDE8FF9F2C
:102930002DE9FF5F4FF4784A00F1080301F1030429
:10294000FEF74EFA00F1030000F1020301F10A0460
:10295000FEF746FABDE8FF9F2DE9FF5F4FF05000FC
:102960004FF03C0100F1A00301F178044FF0000AA0
:10297000FEF736FA4FF4784A01F10404FEF730FA14
:1029800000F104034FF0B404FEF72AFA4FF0EC0014
:1029900000F10403FEF724FA4FF050004FF0B001AD
:1029A00001F10404FEF71CFA4FF087004FF06E01AE
:1029B000FFF718FE00F10B00FFF738FE00F10B00E7
:1029C000FFF77AFE00F10F00FFF706FF4FF08700D8
:1029D0004FF07D01FFF74AFE00F10B00FFF78AFE82
:1029E00000F10B00FFF7F8FE00F10B00FFF7E2FE2D
:1029F000BDE8FF9F2DE9FF5F43F6675A00F107032B
:102A000001F10204FEF7ECF900F10100A3F101036A
:102A100001F1020101F10204FEF7E2F900F1010007
:102A2000A3F1010301F1020101F10204FEF7D8F95B
:102A300000F10100A3F1010301F1020101F102041F
:102A4000FEF7CEF9BDE8FF9F2DE9FF5F43F6675A19
:102A500000F1070301F1060101F10204FEF7C0F9DC
:102A600000F10100A3F10103A1F10201A4F10204AC
:102A7000FEF7B6F900F10100A3F10103A1F1020193
:102A8000A4F10204FEF7ACF900F10100A3F1010387
:102A9000A1F10201A4F10204FEF7A2F9BDE8FF9F33
:102AA0002DE9FF5F1A4B18601A4B19601A4B01EBA6
:102AB000080404F108041C60FFF79CFF4144FFF781
:102AC000C3FFBDE8FF9F2DE9FE5F144B1968144B4F
:102AD0001A684FF00000A94202D0B24200D001E0D3
:102AE0004FF00100BDE8FE9F2DE9FF5F4DF2A61AF1
:102AF00000F1080301F13004FEF772F94FF0000A0B
:102B000000F10203FEF76CF9BDE8FF9F0AE0000048
:102B1000AA000020AC000020AE00002070000020C1
:102B2000740000202DE9FF5F43F6675A00F10803A7
:102B300001F10804FEF754F94FF4FC6A00F10200B9
:102B4000A3F1020301F10201A4F10204FEF748F926
:102B500001F1010101F1020400F102034FF4784A8E
:102B6000FEF73EF94FF0000AA1F1010101F1010465
:102B700000F1020000F10103FEF732F901F1030157
:102B800001F10104FEF72CF9BDE8FF9F2DE9FF5F7D
:102B900043F6675A00F1080301F10804FEF720F933
:102BA0004FF4FC6A00F10200A3F1020301F10201FB
:102BB000A4F10204FEF714F900F1010000F1020390
:102BC00001F102044FF4784AFEF70AF94FF0000AC7
:102BD000A0F1010000F1010301F1020101F1010482
:102BE000FEF7FEF800F1030000F10103FEF7F8F82C
:102BF000BDE8FF9F2DE9FF5F43F6675A00F1080328
:102C000001F10804FEF7ECF84FF4FC6A00F1020051
:102C1000A3F1020301F10201A4F10204FEF7E0F8BE
:102C20004FF0000A00F1010301F10104FEF7D8F8AA
:102C300001F1030101F10104FEF7D2F84FF4784AE3
:102C400000F10200A1F1020100F10203A4F102046B
:102C5000FEF7C6F8BDE8FF9F2DE9FF5F43F6675A10
:102C600000F1080301F10804FEF7BAF84FF4FC6A1A
:102C700000F10200A3F1020301F10201A4F1020438
:102C8000FEF7AEF84FF0000A00F1010301F1010474
:102C9000FEF7A6F800F1030000F10103FEF7A0F82B
:102CA0004FF4784AA0F1020000F1020301F10101A2
:102CB00001F10204FEF794F8BDE8FF9F2DE9FF5FE4
:102CC000054B064C18682168054B064C1D682668A4
:102CD000BDE8FF9F08E000007000002074000020A5
:102CE000780000207C0000202DE9FF5F414E336812
:102CF0004148016801F10101DFF800C1DCF800B0D2
:102D0000594500D800E03E4901600B705FF8F4813E
:102D10005FF8F491D8F80040D9F8005020462946D1
:102D200000F01FF9012B07D0022B12D0032B1ED06D
:102D3000042B29D000F035F8A4F10804042C4FDB53
:102D4000C8F80040204629463360FFF7EBFE00F04C
:102D500028F804F10804B4F59A7F41DCC8F8004073
:102D6000204629463360FFF745FF00F01AF8A5F129
:102D70000805042D34DBC9F800502046294633608D
:102D8000FFF704FF00F00DF805F10805C82D27DC5A
:102D9000C9F80050204629463360FFF75DFF00F078
:102DA00000F8DFF86880DFF86890D8F80030D9F8CC
:102DB0000040984200D019E0A14200D016E0154F23
:102DC0004FF0010AC7F800A01349144AD1F800B027
:102DD000D2F800C0C8F800B0C9F800C000F006F88A
:102DE0005FF830C74FF00006CCF80060BDE8FF9FE9
:102DF00018E00000A0000020840000209C000020BB
:102E00000C000020700000207400002090000020C2
:102E10009400002098000020780000207C00002012
:102E20008C0000202DE9FF5FD848016801F1010105
:102E30005FF838C0DCF800B0594500D800E0D5494B
:102E4000016091F800B05FF868815FF86891D8F888
:102E50000040D9F800502046294600F0ACF8BBF1FC
:102E6000010F0AD0BBF1020F0DD0BBF1030F10D040
:102E7000BBF1040F13D000F018F8A4F10804C8F84F
:102E8000004000F012F804F10804C8F8004000F017
:102E90000CF8A5F10805C9F8005000F006F805F196
:102EA0000805C9F8005000F000F82046294600F057
:102EB00066F8BDE8FF9F2DE9FF5FDFF8D0C2DCF8C0
:102EC00000005FF8E4C1DCF800105FF8E8C1DCF84E
:102ED00000205FF8B8C3DCF800305FF8BCC3DCF852
:102EE00000405FF8E8C0DCF800508B4200D009E0F9
:102EF000A24200D006E05FF844C84FF00006CCF8CC
:102F000000602CE0A84200D800E0A24890F80080C1
:102F1000B8F1010F0AD0B8F1020F0BD0B8F1030FCE
:102F20000CD0B8F1040F0DD000F010F8A1F1080199
:102F300000F00CF801F1080100F008F8A2F1080215
:102F400000F004F802F1080200F000F800F10100BE
:102F50005FF85C91D9F800A0504500DAC5E7BDE8FC
:102F6000FF9F2DE9FF5F4FF4FC6A4FF0000300F173
:102F7000080301F10804FDF733FFBDE8FF9F2DE9C9
:102F8000FF5F4FF4784A4FF0000300F1080301F1AE
:102F90000804FDF725FFBDE8FF9F2DE9FF5F40F224
:102FA000FF7A4FF0000300F1080301F10804FDF778
:102FB00017FFBDE8FF9F2DE9FF5F4FF6E07A4FF066
:102FC000000300F1080301F10804FDF709FFBDE863
:102FD000FF9F2DE9FF5F764A764F774D28684FEACD
:102FE000D03000F00100002809D0734D28684FEA66
:102FF000903000F00100002807D000F00CF84FF0EE
:103000000108C7F8008000F00CF84FF00208C7F87C
:10301000008000F006F84FF00008C7F8008000F0CC
:1030200000F800F002F8BDE8FF9F2DE9FF5F61485E
:1030300001685FF840A2DAF800B000293BD0BBF18C
:10304000010F14D0BBF1020F17D0BBF1030F02D058
:10305000BBF1040F05D001291BD002291FD000F0BD
:103060002AF801291BD0022913D000F024F80129E5
:103070001BD0022907D000F01EF8012903D0022935
:1030800013D000F018F84FF0030CCAF800C000F09D
:1030900012F84FF0010CCAF800C000F00CF84FF025
:1030A000020CCAF800C000F006F84FF0040CCAF891
:1030B00000C000F000F8BDE8FF9F2DE9FF5FFEF7BC
:1030C000EFFFFFF713FA4FF02C004FF03401FFF73A
:1030D0000BFD4FF0F4004FF05C01FFF705FD4FF0E2
:1030E00054004FF05401FFF758FF4FF05C004FF0D1
:1030F0005401FFF736FF4FF064004FF05401FFF723
:1031000030FF4FF064004FF05C01FFF72AFF4FF0F3
:1031100064004FF06401FFF724FF4FF06C004FF0A4
:103120006401FFF72CFF5FF81CA3DAF800005FF8DA
:1031300020A3DAF80010FEF7FEFFFFF74AFFFDF7C5
:10314000B8FEFFF7D1FDFFF7B6FE1748016800296A
:1031500011D05FF840A3DAF80000012801D0FFF792
:1031600061FEFFF7A2F9FDF7A4FE4FF00000CAF8D8
:103170000000FFF7D8FFFFF798F90B484FF0030165
:103180000160FFF7E9FBBDE8FF9F00008800002019
:103190009C0000200C000020780000207C00002013
:1031A00070000020740000208C00002084000020AB
:1031B000A0000020A4000020081001409000002082
:1031C0009400002098000020FFFF00F86400000039
:1031D0007800000000000000000000000000000077
:1031E00000000000000000000000000000000000DF
:1031F00000000000000000000000000000000000CF
:1032000000000000000000000000000000000000BE
:1032100000000000000000000000000000000000AE
:10322000000000000000000000000000000000009E
:10323000000000000000000000000000000000008E
:10324000000000000000000000000000000000007E
:10325000000000000000000000000000000000006E
:10326000000000000000000000000000000000005E
:1032700004042800280050000000000000000000A6
:10328000000000000000000000000000000000003E
:10329000000000000000000000000000000000002E
:0432A000000000002A
:04000005080000ED02
:00000001FF
